{
  "_format": "hh-sol-artifact-1",
  "contractName": "FreelanceMarketplace",
  "sourceName": "contracts/FreelanceMarketplace.sol",
  "abi": [
    {
      "anonymous": false,
      "inputs": [
        {
          "indexed": true,
          "internalType": "uint256",
          "name": "jobId",
          "type": "uint256"
        },
        {
          "indexed": true,
          "internalType": "address",
          "name": "client",
          "type": "address"
        },
        {
          "indexed": false,
          "internalType": "string",
          "name": "title",
          "type": "string"
        },
        {
          "indexed": false,
          "internalType": "uint256",
          "name": "budget",
          "type": "uint256"
        }
      ],
      "name": "JobCreated",
      "type": "event"
    },
    {
      "anonymous": false,
      "inputs": [
        {
          "indexed": true,
          "internalType": "uint256",
          "name": "milestoneId",
          "type": "uint256"
        },
        {
          "indexed": true,
          "internalType": "uint256",
          "name": "jobId",
          "type": "uint256"
        }
      ],
      "name": "MilestoneApproved",
      "type": "event"
    },
    {
      "anonymous": false,
      "inputs": [
        {
          "indexed": true,
          "internalType": "uint256",
          "name": "milestoneId",
          "type": "uint256"
        },
        {
          "indexed": true,
          "internalType": "uint256",
          "name": "jobId",
          "type": "uint256"
        }
      ],
      "name": "MilestoneCompleted",
      "type": "event"
    },
    {
      "anonymous": false,
      "inputs": [
        {
          "indexed": true,
          "internalType": "uint256",
          "name": "milestoneId",
          "type": "uint256"
        },
        {
          "indexed": true,
          "internalType": "uint256",
          "name": "jobId",
          "type": "uint256"
        },
        {
          "indexed": false,
          "internalType": "uint256",
          "name": "amount",
          "type": "uint256"
        }
      ],
      "name": "MilestoneCreated",
      "type": "event"
    },
    {
      "anonymous": false,
      "inputs": [
        {
          "indexed": true,
          "internalType": "uint256",
          "name": "milestoneId",
          "type": "uint256"
        },
        {
          "indexed": true,
          "internalType": "address",
          "name": "freelancer",
          "type": "address"
        },
        {
          "indexed": false,
          "internalType": "uint256",
          "name": "amount",
          "type": "uint256"
        }
      ],
      "name": "PaymentReleased",
      "type": "event"
    },
    {
      "anonymous": false,
      "inputs": [
        {
          "indexed": true,
          "internalType": "uint256",
          "name": "jobId",
          "type": "uint256"
        },
        {
          "indexed": true,
          "internalType": "address",
          "name": "freelancer",
          "type": "address"
        }
      ],
      "name": "ProposalAccepted",
      "type": "event"
    },
    {
      "anonymous": false,
      "inputs": [
        {
          "indexed": true,
          "internalType": "uint256",
          "name": "jobId",
          "type": "uint256"
        },
        {
          "indexed": true,
          "internalType": "address",
          "name": "freelancer",
          "type": "address"
        },
        {
          "indexed": false,
          "internalType": "uint256",
          "name": "proposalId",
          "type": "uint256"
        }
      ],
      "name": "ProposalSubmitted",
      "type": "event"
    },
    {
      "anonymous": false,
      "inputs": [
        {
          "indexed": true,
          "internalType": "address",
          "name": "user",
          "type": "address"
        },
        {
          "indexed": false,
          "internalType": "uint256",
          "name": "newScore",
          "type": "uint256"
        }
      ],
      "name": "ReputationUpdated",
      "type": "event"
    },
    {
      "inputs": [
        {
          "internalType": "uint256",
          "name": "_jobId",
          "type": "uint256"
        },
        {
          "internalType": "uint256",
          "name": "_proposalIndex",
          "type": "uint256"
        }
      ],
      "name": "acceptProposal",
      "outputs": [],
      "stateMutability": "nonpayable",
      "type": "function"
    },
    {
      "inputs": [
        {
          "internalType": "uint256",
          "name": "_jobId",
          "type": "uint256"
        },
        {
          "internalType": "uint256",
          "name": "_milestoneIndex",
          "type": "uint256"
        }
      ],
      "name": "approveMilestone",
      "outputs": [],
      "stateMutability": "nonpayable",
      "type": "function"
    },
    {
      "inputs": [
        {
          "internalType": "uint256",
          "name": "_jobId",
          "type": "uint256"
        }
      ],
      "name": "cancelJob",
      "outputs": [],
      "stateMutability": "nonpayable",
      "type": "function"
    },
    {
      "inputs": [
        {
          "internalType": "address",
          "name": "",
          "type": "address"
        },
        {
          "internalType": "uint256",
          "name": "",
          "type": "uint256"
        }
      ],
      "name": "clientJobs",
      "outputs": [
        {
          "internalType": "uint256",
          "name": "",
          "type": "uint256"
        }
      ],
      "stateMutability": "view",
      "type": "function"
    },
    {
      "inputs": [
        {
          "internalType": "string",
          "name": "_title",
          "type": "string"
        },
        {
          "internalType": "string",
          "name": "_description",
          "type": "string"
        },
        {
          "internalType": "uint256[]",
          "name": "_milestoneAmounts",
          "type": "uint256[]"
        },
        {
          "internalType": "string[]",
          "name": "_milestoneDescriptions",
          "type": "string[]"
        }
      ],
      "name": "createJob",
      "outputs": [],
      "stateMutability": "payable",
      "type": "function"
    },
    {
      "inputs": [
        {
          "internalType": "address",
          "name": "",
          "type": "address"
        },
        {
          "internalType": "uint256",
          "name": "",
          "type": "uint256"
        }
      ],
      "name": "freelancerJobs",
      "outputs": [
        {
          "internalType": "uint256",
          "name": "",
          "type": "uint256"
        }
      ],
      "stateMutability": "view",
      "type": "function"
    },
    {
      "inputs": [
        {
          "internalType": "address",
          "name": "_client",
          "type": "address"
        }
      ],
      "name": "getClientJobs",
      "outputs": [
        {
          "internalType": "uint256[]",
          "name": "",
          "type": "uint256[]"
        }
      ],
      "stateMutability": "view",
      "type": "function"
    },
    {
      "inputs": [
        {
          "internalType": "address",
          "name": "_freelancer",
          "type": "address"
        }
      ],
      "name": "getFreelancerJobs",
      "outputs": [
        {
          "internalType": "uint256[]",
          "name": "",
          "type": "uint256[]"
        }
      ],
      "stateMutability": "view",
      "type": "function"
    },
    {
      "inputs": [
        {
          "internalType": "uint256",
          "name": "_jobId",
          "type": "uint256"
        }
      ],
      "name": "getJobMilestones",
      "outputs": [
        {
          "components": [
            {
              "internalType": "uint256",
              "name": "id",
              "type": "uint256"
            },
            {
              "internalType": "uint256",
              "name": "jobId",
              "type": "uint256"
            },
            {
              "internalType": "string",
              "name": "description",
              "type": "string"
            },
            {
              "internalType": "uint256",
              "name": "amount",
              "type": "uint256"
            },
            {
              "internalType": "bool",
              "name": "isCompleted",
              "type": "bool"
            },
            {
              "internalType": "bool",
              "name": "isPaid",
              "type": "bool"
            },
            {
              "internalType": "bool",
              "name": "clientApproved",
              "type": "bool"
            },
            {
              "internalType": "string",
              "name": "deliverableHash",
              "type": "string"
            }
          ],
          "internalType": "struct FreelanceMarketplace.Milestone[]",
          "name": "",
          "type": "tuple[]"
        }
      ],
      "stateMutability": "view",
      "type": "function"
    },
    {
      "inputs": [
        {
          "internalType": "uint256",
          "name": "_jobId",
          "type": "uint256"
        }
      ],
      "name": "getJobProposals",
      "outputs": [
        {
          "components": [
            {
              "internalType": "uint256",
              "name": "jobId",
              "type": "uint256"
            },
            {
              "internalType": "address",
              "name": "freelancer",
              "type": "address"
            },
            {
              "internalType": "string",
              "name": "coverLetter",
              "type": "string"
            },
            {
              "internalType": "uint256",
              "name": "proposedAmount",
              "type": "uint256"
            },
            {
              "internalType": "bool",
              "name": "isAccepted",
              "type": "bool"
            }
          ],
          "internalType": "struct FreelanceMarketplace.Proposal[]",
          "name": "",
          "type": "tuple[]"
        }
      ],
      "stateMutability": "view",
      "type": "function"
    },
    {
      "inputs": [],
      "name": "jobCounter",
      "outputs": [
        {
          "internalType": "uint256",
          "name": "",
          "type": "uint256"
        }
      ],
      "stateMutability": "view",
      "type": "function"
    },
    {
      "inputs": [
        {
          "internalType": "uint256",
          "name": "",
          "type": "uint256"
        },
        {
          "internalType": "uint256",
          "name": "",
          "type": "uint256"
        }
      ],
      "name": "jobMilestones",
      "outputs": [
        {
          "internalType": "uint256",
          "name": "id",
          "type": "uint256"
        },
        {
          "internalType": "uint256",
          "name": "jobId",
          "type": "uint256"
        },
        {
          "internalType": "string",
          "name": "description",
          "type": "string"
        },
        {
          "internalType": "uint256",
          "name": "amount",
          "type": "uint256"
        },
        {
          "internalType": "bool",
          "name": "isCompleted",
          "type": "bool"
        },
        {
          "internalType": "bool",
          "name": "isPaid",
          "type": "bool"
        },
        {
          "internalType": "bool",
          "name": "clientApproved",
          "type": "bool"
        },
        {
          "internalType": "string",
          "name": "deliverableHash",
          "type": "string"
        }
      ],
      "stateMutability": "view",
      "type": "function"
    },
    {
      "inputs": [
        {
          "internalType": "uint256",
          "name": "",
          "type": "uint256"
        },
        {
          "internalType": "uint256",
          "name": "",
          "type": "uint256"
        }
      ],
      "name": "jobProposals",
      "outputs": [
        {
          "internalType": "uint256",
          "name": "jobId",
          "type": "uint256"
        },
        {
          "internalType": "address",
          "name": "freelancer",
          "type": "address"
        },
        {
          "internalType": "string",
          "name": "coverLetter",
          "type": "string"
        },
        {
          "internalType": "uint256",
          "name": "proposedAmount",
          "type": "uint256"
        },
        {
          "internalType": "bool",
          "name": "isAccepted",
          "type": "bool"
        }
      ],
      "stateMutability": "view",
      "type": "function"
    },
    {
      "inputs": [
        {
          "internalType": "uint256",
          "name": "",
          "type": "uint256"
        }
      ],
      "name": "jobs",
      "outputs": [
        {
          "internalType": "uint256",
          "name": "id",
          "type": "uint256"
        },
        {
          "internalType": "address",
          "name": "client",
          "type": "address"
        },
        {
          "internalType": "string",
          "name": "title",
          "type": "string"
        },
        {
          "internalType": "string",
          "name": "description",
          "type": "string"
        },
        {
          "internalType": "uint256",
          "name": "totalBudget",
          "type": "uint256"
        },
        {
          "internalType": "uint256",
          "name": "milestonesCount",
          "type": "uint256"
        },
        {
          "internalType": "bool",
          "name": "isActive",
          "type": "bool"
        },
        {
          "internalType": "address",
          "name": "freelancer",
          "type": "address"
        },
        {
          "internalType": "uint256",
          "name": "createdAt",
          "type": "uint256"
        }
      ],
      "stateMutability": "view",
      "type": "function"
    },
    {
      "inputs": [],
      "name": "milestoneCounter",
      "outputs": [
        {
          "internalType": "uint256",
          "name": "",
          "type": "uint256"
        }
      ],
      "stateMutability": "view",
      "type": "function"
    },
    {
      "inputs": [],
      "name": "proposalCounter",
      "outputs": [
        {
          "internalType": "uint256",
          "name": "",
          "type": "uint256"
        }
      ],
      "stateMutability": "view",
      "type": "function"
    },
    {
      "inputs": [
        {
          "internalType": "uint256",
          "name": "_jobId",
          "type": "uint256"
        },
        {
          "internalType": "uint256",
          "name": "_milestoneIndex",
          "type": "uint256"
        },
        {
          "internalType": "string",
          "name": "_deliverableHash",
          "type": "string"
        }
      ],
      "name": "submitMilestone",
      "outputs": [],
      "stateMutability": "nonpayable",
      "type": "function"
    },
    {
      "inputs": [
        {
          "internalType": "uint256",
          "name": "_jobId",
          "type": "uint256"
        },
        {
          "internalType": "string",
          "name": "_coverLetter",
          "type": "string"
        },
        {
          "internalType": "uint256",
          "name": "_proposedAmount",
          "type": "uint256"
        }
      ],
      "name": "submitProposal",
      "outputs": [],
      "stateMutability": "nonpayable",
      "type": "function"
    },
    {
      "inputs": [
        {
          "internalType": "address",
          "name": "",
          "type": "address"
        }
      ],
      "name": "userReputation",
      "outputs": [
        {
          "internalType": "uint256",
          "name": "",
          "type": "uint256"
        }
      ],
      "stateMutability": "view",
      "type": "function"
    }
  ],
  "bytecode": "0x608060405234801561001057600080fd5b50613dd6806100206000396000f3fe6080604052600436106101145760003560e01c806373a2b57f116100a0578063cf2646c211610064578063cf2646c214610401578063e1e1d5ca1461043e578063e364a5f714610467578063e503bb0514610490578063f6baaec7146104cd57610114565b806373a2b57f146102c55780638cc14d05146103095780638facd8591461034a57806390538fe914610387578063bbbcee56146103c457610114565b806320913da5116100e757806320913da5146101db57806340f70be414610204578063442f5c881461024157806350355d761461027e57806354f6e17c146102a957610114565b80630390e07a146101195780630c0512e914610142578063180aedf31461016d5780631dffa3dc146101b2575b600080fd5b34801561012557600080fd5b50610140600480360381019061013b91906126e5565b6104f8565b005b34801561014e57600080fd5b5061015761077d565b6040516101649190612763565b60405180910390f35b34801561017957600080fd5b50610194600480360381019061018f919061277e565b610783565b6040516101a999989796959493929190612886565b60405180910390f35b3480156101be57600080fd5b506101d960048036038101906101d4919061277e565b61092e565b005b3480156101e757600080fd5b5061020260048036038101906101fd9190612921565b610c21565b005b34801561021057600080fd5b5061022b6004803603810190610226919061298d565b611144565b6040516102389190612a78565b60405180910390f35b34801561024d57600080fd5b5061026860048036038101906102639190612a9a565b6111db565b6040516102759190612763565b60405180910390f35b34801561028a57600080fd5b5061029361120c565b6040516102a09190612763565b60405180910390f35b6102c360048036038101906102be9190612c83565b611212565b005b3480156102d157600080fd5b506102ec60048036038101906102e79190612921565b6117ea565b604051610300989796959493929190612d5a565b60405180910390f35b34801561031557600080fd5b50610330600480360381019061032b9190612921565b611986565b604051610341959493929190612de6565b60405180910390f35b34801561035657600080fd5b50610371600480360381019061036c9190612a9a565b611a8e565b60405161037e9190612763565b60405180910390f35b34801561039357600080fd5b506103ae60048036038101906103a9919061277e565b611abf565b6040516103bb9190612fe0565b60405180910390f35b3480156103d057600080fd5b506103eb60048036038101906103e6919061277e565b611c48565b6040516103f8919061317b565b60405180910390f35b34801561040d57600080fd5b506104286004803603810190610423919061298d565b611e4e565b6040516104359190612a78565b60405180910390f35b34801561044a57600080fd5b5061046560048036038101906104609190612921565b611ee5565b005b34801561047357600080fd5b5061048e6004803603810190610489919061319d565b612208565b005b34801561049c57600080fd5b506104b760048036038101906104b2919061298d565b612537565b6040516104c49190612763565b60405180910390f35b3480156104d957600080fd5b506104e261254f565b6040516104ef9190612763565b60405180910390f35b3373ffffffffffffffffffffffffffffffffffffffff166003600085815260200190815260200160002060060160019054906101000a900473ffffffffffffffffffffffffffffffffffffffff1673ffffffffffffffffffffffffffffffffffffffff161461059c576040517f08c379a00000000000000000000000000000000000000000000000000000000081526004016105939061327e565b60405180910390fd5b600460008481526020019081526020016000208054905082106105f4576040517f08c379a00000000000000000000000000000000000000000000000000000000081526004016105eb906132ea565b60405180910390fd5b600060046000858152602001908152602001600020838154811061061b5761061a61330a565b5b906000526020600020906006020190508060040160009054906101000a900460ff161561067d576040517f08c379a000000000000000000000000000000000000000000000000000000000815260040161067490613385565b60405180910390fd5b600083111561071657600460008581526020019081526020016000206001846106a691906133d4565b815481106106b7576106b661330a565b5b906000526020600020906006020160040160019054906101000a900460ff16610715576040517f08c379a000000000000000000000000000000000000000000000000000000000815260040161070c9061347a565b60405180910390fd5b5b8181600501908161072791906136a6565b5060018160040160006101000a81548160ff0219169083151502179055508381600001547f1b7218c0ac23ea9cbe4df603d2b340fbf469a115b73ea3d11460727f445d6be160405160405180910390a350505050565b60025481565b60036020528060005260406000206000915090508060000154908060010160009054906101000a900473ffffffffffffffffffffffffffffffffffffffff16908060020180546107d2906134c9565b80601f01602080910402602001604051908101604052809291908181526020018280546107fe906134c9565b801561084b5780601f106108205761010080835404028352916020019161084b565b820191906000526020600020905b81548152906001019060200180831161082e57829003601f168201915b505050505090806003018054610860906134c9565b80601f016020809104026020016040519081016040528092919081815260200182805461088c906134c9565b80156108d95780601f106108ae576101008083540402835291602001916108d9565b820191906000526020600020905b8154815290600101906020018083116108bc57829003601f168201915b5050505050908060040154908060050154908060060160009054906101000a900460ff16908060060160019054906101000a900473ffffffffffffffffffffffffffffffffffffffff16908060070154905089565b3373ffffffffffffffffffffffffffffffffffffffff166003600083815260200190815260200160002060010160009054906101000a900473ffffffffffffffffffffffffffffffffffffffff1673ffffffffffffffffffffffffffffffffffffffff16146109d2576040517f08c379a00000000000000000000000000000000000000000000000000000000081526004016109c9906137c4565b60405180910390fd5b600073ffffffffffffffffffffffffffffffffffffffff166003600083815260200190815260200160002060060160019054906101000a900473ffffffffffffffffffffffffffffffffffffffff1673ffffffffffffffffffffffffffffffffffffffff1614610a77576040517f08c379a0000000000000000000000000000000000000000000000000000000008152600401610a6e90613830565b60405180910390fd5b6003600082815260200190815260200160002060060160009054906101000a900460ff16610ada576040517f08c379a0000000000000000000000000000000000000000000000000000000008152600401610ad19061389c565b60405180910390fd5b60006003600083815260200190815260200160002060060160006101000a81548160ff0219169083151502179055506000805b6004600084815260200190815260200160002080549050811015610bcb57600460008481526020019081526020016000208181548110610b5057610b4f61330a565b5b906000526020600020906006020160040160019054906101000a900460ff16610bb857600460008481526020019081526020016000208181548110610b9857610b9761330a565b5b90600052602060002090600602016003015482610bb591906138bc565b91505b8080610bc3906138f0565b915050610b0d565b506000811115610c1d573373ffffffffffffffffffffffffffffffffffffffff166108fc829081150290604051600060405180830381858888f19350505050158015610c1b573d6000803e3d6000fd5b505b5050565b3373ffffffffffffffffffffffffffffffffffffffff166003600084815260200190815260200160002060010160009054906101000a900473ffffffffffffffffffffffffffffffffffffffff1673ffffffffffffffffffffffffffffffffffffffff1614610cc5576040517f08c379a0000000000000000000000000000000000000000000000000000000008152600401610cbc90613984565b60405180910390fd5b60046000838152602001908152602001600020805490508110610d1d576040517f08c379a0000000000000000000000000000000000000000000000000000000008152600401610d14906132ea565b60405180910390fd5b6000600460008481526020019081526020016000208281548110610d4457610d4361330a565b5b906000526020600020906006020190508060040160009054906101000a900460ff16610da5576040517f08c379a0000000000000000000000000000000000000000000000000000000008152600401610d9c906139f0565b60405180910390fd5b8060040160019054906101000a900460ff1615610df7576040517f08c379a0000000000000000000000000000000000000000000000000000000008152600401610dee90613a5c565b60405180910390fd5b60018160040160026101000a81548160ff02191690831515021790555060018160040160016101000a81548160ff02191690831515021790555060006003600085815260200190815260200160002060060160019054906101000a900473ffffffffffffffffffffffffffffffffffffffff1690508073ffffffffffffffffffffffffffffffffffffffff166108fc83600301549081150290604051600060405180830381858888f19350505050158015610eb6573d6000803e3d6000fd5b50600a600860008373ffffffffffffffffffffffffffffffffffffffff1673ffffffffffffffffffffffffffffffffffffffff1681526020019081526020016000206000828254610f0791906138bc565b925050819055506005600860003373ffffffffffffffffffffffffffffffffffffffff1673ffffffffffffffffffffffffffffffffffffffff1681526020019081526020016000206000828254610f5e91906138bc565b925050819055508382600001547f939da3b627c123c81fe5aacebf925163337a0d4f8a03724640618078cad2489460405160405180910390a38073ffffffffffffffffffffffffffffffffffffffff1682600001547f21d71db5be59bb9fa133895586b7404307dd33fb93b16db09dc6f1d9d7d231b08460030154604051610fe69190612763565b60405180910390a38073ffffffffffffffffffffffffffffffffffffffff167ffc577563f1b9a0461e24abef1e1fcc0d33d3d881f20b5df6dda59de4aae2c821600860008473ffffffffffffffffffffffffffffffffffffffff1673ffffffffffffffffffffffffffffffffffffffff168152602001908152602001600020546040516110739190612763565b60405180910390a260006001905060005b6004600087815260200190815260200160002080549050811015611106576004600087815260200190815260200160002081815481106110c7576110c661330a565b5b906000526020600020906006020160040160019054906101000a900460ff166110f35760009150611106565b80806110fe906138f0565b915050611084565b50801561113d5760006003600087815260200190815260200160002060060160006101000a81548160ff0219169083151502179055505b5050505050565b6060600760008373ffffffffffffffffffffffffffffffffffffffff1673ffffffffffffffffffffffffffffffffffffffff1681526020019081526020016000208054806020026020016040519081016040528092919081815260200182805480156111cf57602002820191906000526020600020905b8154815260200190600101908083116111bb575b50505050509050919050565b600760205281600052604060002081815481106111f757600080fd5b90600052602060002001600091509150505481565b60005481565b8051825114611256576040517f08c379a000000000000000000000000000000000000000000000000000000000815260040161124d90613ac8565b60405180910390fd5b600082511161129a576040517f08c379a000000000000000000000000000000000000000000000000000000000815260040161129190613b34565b60405180910390fd5b6000805b83518110156112e2578381815181106112ba576112b961330a565b5b6020026020010151826112cd91906138bc565b915080806112da906138f0565b91505061129e565b5080341015611326576040517f08c379a000000000000000000000000000000000000000000000000000000000815260040161131d90613ba0565b60405180910390fd5b600080815480929190611338906138f0565b91905055506000805490506040518061012001604052808281526020013373ffffffffffffffffffffffffffffffffffffffff16815260200187815260200186815260200183815260200185518152602001600115158152602001600073ffffffffffffffffffffffffffffffffffffffff16815260200142815250600360008381526020019081526020016000206000820151816000015560208201518160010160006101000a81548173ffffffffffffffffffffffffffffffffffffffff021916908373ffffffffffffffffffffffffffffffffffffffff160217905550604082015181600201908161142d91906136a6565b50606082015181600301908161144391906136a6565b506080820151816004015560a0820151816005015560c08201518160060160006101000a81548160ff02191690831515021790555060e08201518160060160016101000a81548173ffffffffffffffffffffffffffffffffffffffff021916908373ffffffffffffffffffffffffffffffffffffffff160217905550610100820151816007015590505060005b84518110156116cf57600160008154809291906114ec906138f0565b9190505550600060405180610100016040528060015481526020018481526020018684815181106115205761151f61330a565b5b602002602001015181526020018784815181106115405761153f61330a565b5b6020026020010151815260200160001515815260200160001515815260200160001515815260200160405180602001604052806000815250815250905060046000848152602001908152602001600020819080600181540180825580915050600190039060005260206000209060060201600090919091909150600082015181600001556020820151816001015560408201518160020190816115e391906136a6565b506060820151816003015560808201518160040160006101000a81548160ff02191690831515021790555060a08201518160040160016101000a81548160ff02191690831515021790555060c08201518160040160026101000a81548160ff02191690831515021790555060e082015181600501908161166391906136a6565b505050826001547fb59c2d823e6ca395c24829d80f43a97d9c6fd711596372c5a4663af872f4b9d288858151811061169e5761169d61330a565b5b60200260200101516040516116b39190612763565b60405180910390a35080806116c7906138f0565b9150506114d0565b50600660003373ffffffffffffffffffffffffffffffffffffffff1673ffffffffffffffffffffffffffffffffffffffff1681526020019081526020016000208190806001815401808255809150506001900390600052602060002001600090919091909150553373ffffffffffffffffffffffffffffffffffffffff16817fe2664ff85acbefce4793e83fe4a10e88680b3172a3e401c7946d7cfb8f19ebdb888560405161177f929190613bc0565b60405180910390a3813411156117e2573373ffffffffffffffffffffffffffffffffffffffff166108fc83346117b591906133d4565b9081150290604051600060405180830381858888f193505050501580156117e0573d6000803e3d6000fd5b505b505050505050565b6004602052816000526040600020818154811061180657600080fd5b906000526020600020906006020160009150915050806000015490806001015490806002018054611836906134c9565b80601f0160208091040260200160405190810160405280929190818152602001828054611862906134c9565b80156118af5780601f10611884576101008083540402835291602001916118af565b820191906000526020600020905b81548152906001019060200180831161189257829003601f168201915b5050505050908060030154908060040160009054906101000a900460ff16908060040160019054906101000a900460ff16908060040160029054906101000a900460ff1690806005018054611903906134c9565b80601f016020809104026020016040519081016040528092919081815260200182805461192f906134c9565b801561197c5780601f106119515761010080835404028352916020019161197c565b820191906000526020600020905b81548152906001019060200180831161195f57829003601f168201915b5050505050905088565b600560205281600052604060002081815481106119a257600080fd5b9060005260206000209060050201600091509150508060000154908060010160009054906101000a900473ffffffffffffffffffffffffffffffffffffffff16908060020180546119f2906134c9565b80601f0160208091040260200160405190810160405280929190818152602001828054611a1e906134c9565b8015611a6b5780601f10611a4057610100808354040283529160200191611a6b565b820191906000526020600020905b815481529060010190602001808311611a4e57829003601f168201915b5050505050908060030154908060040160009054906101000a900460ff16905085565b60066020528160005260406000208181548110611aaa57600080fd5b90600052602060002001600091509150505481565b606060056000838152602001908152602001600020805480602002602001604051908101604052809291908181526020016000905b82821015611c3d57838290600052602060002090600502016040518060a0016040529081600082015481526020016001820160009054906101000a900473ffffffffffffffffffffffffffffffffffffffff1673ffffffffffffffffffffffffffffffffffffffff1673ffffffffffffffffffffffffffffffffffffffff168152602001600282018054611b87906134c9565b80601f0160208091040260200160405190810160405280929190818152602001828054611bb3906134c9565b8015611c005780601f10611bd557610100808354040283529160200191611c00565b820191906000526020600020905b815481529060010190602001808311611be357829003601f168201915b50505050508152602001600382015481526020016004820160009054906101000a900460ff16151515158152505081526020019060010190611af4565b505050509050919050565b606060046000838152602001908152602001600020805480602002602001604051908101604052809291908181526020016000905b82821015611e435783829060005260206000209060060201604051806101000160405290816000820154815260200160018201548152602001600282018054611cc5906134c9565b80601f0160208091040260200160405190810160405280929190818152602001828054611cf1906134c9565b8015611d3e5780601f10611d1357610100808354040283529160200191611d3e565b820191906000526020600020905b815481529060010190602001808311611d2157829003601f168201915b50505050508152602001600382015481526020016004820160009054906101000a900460ff161515151581526020016004820160019054906101000a900460ff161515151581526020016004820160029054906101000a900460ff16151515158152602001600582018054611db2906134c9565b80601f0160208091040260200160405190810160405280929190818152602001828054611dde906134c9565b8015611e2b5780601f10611e0057610100808354040283529160200191611e2b565b820191906000526020600020905b815481529060010190602001808311611e0e57829003601f168201915b50505050508152505081526020019060010190611c7d565b505050509050919050565b6060600660008373ffffffffffffffffffffffffffffffffffffffff1673ffffffffffffffffffffffffffffffffffffffff168152602001908152602001600020805480602002602001604051908101604052809291908181526020018280548015611ed957602002820191906000526020600020905b815481526020019060010190808311611ec5575b50505050509050919050565b3373ffffffffffffffffffffffffffffffffffffffff166003600084815260200190815260200160002060010160009054906101000a900473ffffffffffffffffffffffffffffffffffffffff1673ffffffffffffffffffffffffffffffffffffffff1614611f89576040517f08c379a0000000000000000000000000000000000000000000000000000000008152600401611f8090613c3c565b60405180910390fd5b6003600083815260200190815260200160002060060160009054906101000a900460ff16611fec576040517f08c379a0000000000000000000000000000000000000000000000000000000008152600401611fe39061389c565b60405180910390fd5b60056000838152602001908152602001600020805490508110612044576040517f08c379a000000000000000000000000000000000000000000000000000000000815260040161203b90613ca8565b60405180910390fd5b600060056000848152602001908152602001600020828154811061206b5761206a61330a565b5b9060005260206000209060050201905060018160040160006101000a81548160ff0219169083151502179055508060010160009054906101000a900473ffffffffffffffffffffffffffffffffffffffff166003600085815260200190815260200160002060060160016101000a81548173ffffffffffffffffffffffffffffffffffffffff021916908373ffffffffffffffffffffffffffffffffffffffff160217905550600760008260010160009054906101000a900473ffffffffffffffffffffffffffffffffffffffff1673ffffffffffffffffffffffffffffffffffffffff1673ffffffffffffffffffffffffffffffffffffffff1681526020019081526020016000208390806001815401808255809150506001900390600052602060002001600090919091909150558060010160009054906101000a900473ffffffffffffffffffffffffffffffffffffffff1673ffffffffffffffffffffffffffffffffffffffff16837f488e676b8b729cd92586573f5b7b42787c118396c4a19f570e9c9e422e4dbf1860405160405180910390a3505050565b6003600084815260200190815260200160002060060160009054906101000a900460ff1661226b576040517f08c379a00000000000000000000000000000000000000000000000000000000081526004016122629061389c565b60405180910390fd5b600073ffffffffffffffffffffffffffffffffffffffff166003600085815260200190815260200160002060060160019054906101000a900473ffffffffffffffffffffffffffffffffffffffff1673ffffffffffffffffffffffffffffffffffffffff1614612310576040517f08c379a000000000000000000000000000000000000000000000000000000000815260040161230790613d14565b60405180910390fd5b3373ffffffffffffffffffffffffffffffffffffffff166003600085815260200190815260200160002060010160009054906101000a900473ffffffffffffffffffffffffffffffffffffffff1673ffffffffffffffffffffffffffffffffffffffff16036123b4576040517f08c379a00000000000000000000000000000000000000000000000000000000081526004016123ab90613d80565b60405180910390fd5b600260008154809291906123c7906138f0565b919050555060006040518060a001604052808581526020013373ffffffffffffffffffffffffffffffffffffffff168152602001848152602001838152602001600015158152509050600560008581526020019081526020016000208190806001815401808255809150506001900390600052602060002090600502016000909190919091506000820151816000015560208201518160010160006101000a81548173ffffffffffffffffffffffffffffffffffffffff021916908373ffffffffffffffffffffffffffffffffffffffff16021790555060408201518160020190816124b391906136a6565b506060820151816003015560808201518160040160006101000a81548160ff02191690831515021790555050503373ffffffffffffffffffffffffffffffffffffffff16847f6595205dae276ce902b2ea66a70a1f42db62056854c3c4dba1e00ec5e2d56e3d6002546040516125299190612763565b60405180910390a350505050565b60086020528060005260406000206000915090505481565b60015481565b6000604051905090565b600080fd5b600080fd5b6000819050919050565b61257c81612569565b811461258757600080fd5b50565b60008135905061259981612573565b92915050565b600080fd5b600080fd5b6000601f19601f8301169050919050565b7f4e487b7100000000000000000000000000000000000000000000000000000000600052604160045260246000fd5b6125f2826125a9565b810181811067ffffffffffffffff82111715612611576126106125ba565b5b80604052505050565b6000612624612555565b905061263082826125e9565b919050565b600067ffffffffffffffff8211156126505761264f6125ba565b5b612659826125a9565b9050602081019050919050565b82818337600083830152505050565b600061268861268384612635565b61261a565b9050828152602081018484840111156126a4576126a36125a4565b5b6126af848285612666565b509392505050565b600082601f8301126126cc576126cb61259f565b5b81356126dc848260208601612675565b91505092915050565b6000806000606084860312156126fe576126fd61255f565b5b600061270c8682870161258a565b935050602061271d8682870161258a565b925050604084013567ffffffffffffffff81111561273e5761273d612564565b5b61274a868287016126b7565b9150509250925092565b61275d81612569565b82525050565b60006020820190506127786000830184612754565b92915050565b6000602082840312156127945761279361255f565b5b60006127a28482850161258a565b91505092915050565b600073ffffffffffffffffffffffffffffffffffffffff82169050919050565b60006127d6826127ab565b9050919050565b6127e6816127cb565b82525050565b600081519050919050565b600082825260208201905092915050565b60005b8381101561282657808201518184015260208101905061280b565b60008484015250505050565b600061283d826127ec565b61284781856127f7565b9350612857818560208601612808565b612860816125a9565b840191505092915050565b60008115159050919050565b6128808161286b565b82525050565b60006101208201905061289c600083018c612754565b6128a9602083018b6127dd565b81810360408301526128bb818a612832565b905081810360608301526128cf8189612832565b90506128de6080830188612754565b6128eb60a0830187612754565b6128f860c0830186612877565b61290560e08301856127dd565b612913610100830184612754565b9a9950505050505050505050565b600080604083850312156129385761293761255f565b5b60006129468582860161258a565b92505060206129578582860161258a565b9150509250929050565b61296a816127cb565b811461297557600080fd5b50565b60008135905061298781612961565b92915050565b6000602082840312156129a3576129a261255f565b5b60006129b184828501612978565b91505092915050565b600081519050919050565b600082825260208201905092915050565b6000819050602082019050919050565b6129ef81612569565b82525050565b6000612a0183836129e6565b60208301905092915050565b6000602082019050919050565b6000612a25826129ba565b612a2f81856129c5565b9350612a3a836129d6565b8060005b83811015612a6b578151612a5288826129f5565b9750612a5d83612a0d565b925050600181019050612a3e565b5085935050505092915050565b60006020820190508181036000830152612a928184612a1a565b905092915050565b60008060408385031215612ab157612ab061255f565b5b6000612abf85828601612978565b9250506020612ad08582860161258a565b9150509250929050565b600067ffffffffffffffff821115612af557612af46125ba565b5b602082029050602081019050919050565b600080fd5b6000612b1e612b1984612ada565b61261a565b90508083825260208201905060208402830185811115612b4157612b40612b06565b5b835b81811015612b6a5780612b56888261258a565b845260208401935050602081019050612b43565b5050509392505050565b600082601f830112612b8957612b8861259f565b5b8135612b99848260208601612b0b565b91505092915050565b600067ffffffffffffffff821115612bbd57612bbc6125ba565b5b602082029050602081019050919050565b6000612be1612bdc84612ba2565b61261a565b90508083825260208201905060208402830185811115612c0457612c03612b06565b5b835b81811015612c4b57803567ffffffffffffffff811115612c2957612c2861259f565b5b808601612c3689826126b7565b85526020850194505050602081019050612c06565b5050509392505050565b600082601f830112612c6a57612c6961259f565b5b8135612c7a848260208601612bce565b91505092915050565b60008060008060808587031215612c9d57612c9c61255f565b5b600085013567ffffffffffffffff811115612cbb57612cba612564565b5b612cc7878288016126b7565b945050602085013567ffffffffffffffff811115612ce857612ce7612564565b5b612cf4878288016126b7565b935050604085013567ffffffffffffffff811115612d1557612d14612564565b5b612d2187828801612b74565b925050606085013567ffffffffffffffff811115612d4257612d41612564565b5b612d4e87828801612c55565b91505092959194509250565b600061010082019050612d70600083018b612754565b612d7d602083018a612754565b8181036040830152612d8f8189612832565b9050612d9e6060830188612754565b612dab6080830187612877565b612db860a0830186612877565b612dc560c0830185612877565b81810360e0830152612dd78184612832565b90509998505050505050505050565b600060a082019050612dfb6000830188612754565b612e0860208301876127dd565b8181036040830152612e1a8186612832565b9050612e296060830185612754565b612e366080830184612877565b9695505050505050565b600081519050919050565b600082825260208201905092915050565b6000819050602082019050919050565b612e75816127cb565b82525050565b600082825260208201905092915050565b6000612e97826127ec565b612ea18185612e7b565b9350612eb1818560208601612808565b612eba816125a9565b840191505092915050565b612ece8161286b565b82525050565b600060a083016000830151612eec60008601826129e6565b506020830151612eff6020860182612e6c565b5060408301518482036040860152612f178282612e8c565b9150506060830151612f2c60608601826129e6565b506080830151612f3f6080860182612ec5565b508091505092915050565b6000612f568383612ed4565b905092915050565b6000602082019050919050565b6000612f7682612e40565b612f808185612e4b565b935083602082028501612f9285612e5c565b8060005b85811015612fce5784840389528151612faf8582612f4a565b9450612fba83612f5e565b925060208a01995050600181019050612f96565b50829750879550505050505092915050565b60006020820190508181036000830152612ffa8184612f6b565b905092915050565b600081519050919050565b600082825260208201905092915050565b6000819050602082019050919050565b60006101008301600083015161304760008601826129e6565b50602083015161305a60208601826129e6565b50604083015184820360408601526130728282612e8c565b915050606083015161308760608601826129e6565b50608083015161309a6080860182612ec5565b5060a08301516130ad60a0860182612ec5565b5060c08301516130c060c0860182612ec5565b5060e083015184820360e08601526130d88282612e8c565b9150508091505092915050565b60006130f1838361302e565b905092915050565b6000602082019050919050565b600061311182613002565b61311b818561300d565b93508360208202850161312d8561301e565b8060005b85811015613169578484038952815161314a85826130e5565b9450613155836130f9565b925060208a01995050600181019050613131565b50829750879550505050505092915050565b600060208201905081810360008301526131958184613106565b905092915050565b6000806000606084860312156131b6576131b561255f565b5b60006131c48682870161258a565b935050602084013567ffffffffffffffff8111156131e5576131e4612564565b5b6131f1868287016126b7565b92505060406132028682870161258a565b9150509250925092565b7f4f6e6c792061737369676e656420667265656c616e6365722063616e2073756260008201527f6d69740000000000000000000000000000000000000000000000000000000000602082015250565b60006132686023836127f7565b91506132738261320c565b604082019050919050565b600060208201905081810360008301526132978161325b565b9050919050565b7f496e76616c6964206d696c6573746f6e65000000000000000000000000000000600082015250565b60006132d46011836127f7565b91506132df8261329e565b602082019050919050565b60006020820190508181036000830152613303816132c7565b9050919050565b7f4e487b7100000000000000000000000000000000000000000000000000000000600052603260045260246000fd5b7f4d696c6573746f6e6520616c726561647920636f6d706c657465640000000000600082015250565b600061336f601b836127f7565b915061337a82613339565b602082019050919050565b6000602082019050818103600083015261339e81613362565b9050919050565b7f4e487b7100000000000000000000000000000000000000000000000000000000600052601160045260246000fd5b60006133df82612569565b91506133ea83612569565b9250828203905081811115613402576134016133a5565b5b92915050565b7f436f6d706c6574652070726576696f7573206d696c6573746f6e65206669727360008201527f7400000000000000000000000000000000000000000000000000000000000000602082015250565b60006134646021836127f7565b915061346f82613408565b604082019050919050565b6000602082019050818103600083015261349381613457565b9050919050565b7f4e487b7100000000000000000000000000000000000000000000000000000000600052602260045260246000fd5b600060028204905060018216806134e157607f821691505b6020821081036134f4576134f361349a565b5b50919050565b60008190508160005260206000209050919050565b60006020601f8301049050919050565b600082821b905092915050565b60006008830261355c7fffffffffffffffffffffffffffffffffffffffffffffffffffffffffffffffff8261351f565b613566868361351f565b95508019841693508086168417925050509392505050565b6000819050919050565b60006135a361359e61359984612569565b61357e565b612569565b9050919050565b6000819050919050565b6135bd83613588565b6135d16135c9826135aa565b84845461352c565b825550505050565b600090565b6135e66135d9565b6135f18184846135b4565b505050565b5b818110156136155761360a6000826135de565b6001810190506135f7565b5050565b601f82111561365a5761362b816134fa565b6136348461350f565b81016020851015613643578190505b61365761364f8561350f565b8301826135f6565b50505b505050565b600082821c905092915050565b600061367d6000198460080261365f565b1980831691505092915050565b6000613696838361366c565b9150826002028217905092915050565b6136af826127ec565b67ffffffffffffffff8111156136c8576136c76125ba565b5b6136d282546134c9565b6136dd828285613619565b600060209050601f83116001811461371057600084156136fe578287015190505b613708858261368a565b865550613770565b601f19841661371e866134fa565b60005b8281101561374657848901518255600182019150602085019450602081019050613721565b86831015613763578489015161375f601f89168261366c565b8355505b6001600288020188555050505b505050505050565b7f4f6e6c7920636c69656e742063616e2063616e63656c00000000000000000000600082015250565b60006137ae6016836127f7565b91506137b982613778565b602082019050919050565b600060208201905081810360008301526137dd816137a1565b9050919050565b7f4a6f6220616c7265616479207374617274656400000000000000000000000000600082015250565b600061381a6013836127f7565b9150613825826137e4565b602082019050919050565b600060208201905081810360008301526138498161380d565b9050919050565b7f4a6f62206e6f7420616374697665000000000000000000000000000000000000600082015250565b6000613886600e836127f7565b915061389182613850565b602082019050919050565b600060208201905081810360008301526138b581613879565b9050919050565b60006138c782612569565b91506138d283612569565b92508282019050808211156138ea576138e96133a5565b5b92915050565b60006138fb82612569565b91507fffffffffffffffffffffffffffffffffffffffffffffffffffffffffffffffff820361392d5761392c6133a5565b5b600182019050919050565b7f4f6e6c7920636c69656e742063616e20617070726f7665000000000000000000600082015250565b600061396e6017836127f7565b915061397982613938565b602082019050919050565b6000602082019050818103600083015261399d81613961565b9050919050565b7f4d696c6573746f6e65206e6f7420636f6d706c65746564000000000000000000600082015250565b60006139da6017836127f7565b91506139e5826139a4565b602082019050919050565b60006020820190508181036000830152613a09816139cd565b9050919050565b7f416c726561647920706169640000000000000000000000000000000000000000600082015250565b6000613a46600c836127f7565b9150613a5182613a10565b602082019050919050565b60006020820190508181036000830152613a7581613a39565b9050919050565b7f4d696c6573746f6e652064617461206d69736d61746368000000000000000000600082015250565b6000613ab26017836127f7565b9150613abd82613a7c565b602082019050919050565b60006020820190508181036000830152613ae181613aa5565b9050919050565b7f4174206c65617374206f6e65206d696c6573746f6e6520726571756972656400600082015250565b6000613b1e601f836127f7565b9150613b2982613ae8565b602082019050919050565b60006020820190508181036000830152613b4d81613b11565b9050919050565b7f496e73756666696369656e742066756e64732073656e74000000000000000000600082015250565b6000613b8a6017836127f7565b9150613b9582613b54565b602082019050919050565b60006020820190508181036000830152613bb981613b7d565b9050919050565b60006040820190508181036000830152613bda8185612832565b9050613be96020830184612754565b9392505050565b7f4f6e6c7920636c69656e742063616e2061636365707400000000000000000000600082015250565b6000613c266016836127f7565b9150613c3182613bf0565b602082019050919050565b60006020820190508181036000830152613c5581613c19565b9050919050565b7f496e76616c69642070726f706f73616c00000000000000000000000000000000600082015250565b6000613c926010836127f7565b9150613c9d82613c5c565b602082019050919050565b60006020820190508181036000830152613cc181613c85565b9050919050565b7f4a6f6220616c72656164792061737369676e6564000000000000000000000000600082015250565b6000613cfe6014836127f7565b9150613d0982613cc8565b602082019050919050565b60006020820190508181036000830152613d2d81613cf1565b9050919050565b7f436c69656e742063616e6e6f74206170706c7920746f206f776e206a6f620000600082015250565b6000613d6a601e836127f7565b9150613d7582613d34565b602082019050919050565b60006020820190508181036000830152613d9981613d5d565b905091905056fea2646970667358221220a7152c72f3506cfcdfc771835d8405530287505955a8056a93d264eb36ef44b064736f6c63430008130033",
  "linkReferences": {},
  "deployedLinkReferences": {}
}